:100000000C9434000C943E000C943E000C943E0082
:100010000C943E000C943E000C943E000C943E0068
:100020000C943E000C943E000C943E000C943E0058
:100030000C943E000C943E000C943E000C943E0048
:100040000C943E000C943E000C943E000C943E0038
:100050000C943E000C943E000C943E000C943E0028
:100060000C943E000C943E0011241FBECFEFD8E04C
:10007000DEBFCDBF0E9482000C94AA010C94000048
:1000800095B125B190682F7738E095B9000087FFCA
:1000900025B90000880F25B93A95B9F708950F934F
:1000A000FC01805A9F4F60834183228303833496EF
:1000B000E817F907C1F70F9108950F931F93CF9396
:1000C000DF93F894EC018C01005A1F4F89810E9444
:1000D000400088810E9440008A810E9440008B81FC
:1000E0000E9440002496C017D10781F7789487E5D5
:1000F00092E00197F1F700C00000DF91CF911F91CE
:100100000F910895CF93DF93CDB7DEB7C056D109D5
:100110000FB6F894DEBF0FBECDBF80E830E020E020
:100120000FB6F89480936100209361000FBE279A68
:100130002F9855985D9A8CE3E82EF12C98E1C92E02
:10014000D12C00E020E040E04D9910C060E0CE01ED
:1001500001960E944F00CE0101960E945D008FE340
:100160009CE90197F1F700C00000EBCF6FEFCE01E3
:1001700001960E944F00CE0101960E945D009FEF04
:1001800029E688E1915020408040E1F700C000005E
:1001900020E04FEF60E0CE0101960E944F00CE01BB
:1001A00001960E945D009FEF29E688E19150204072
:1001B0008040E1F700C000002FEF40E060E0CE019A
:1001C00001960E944F00CE0101960E945D009FEFB4
:1001D00029E688E1915020408040E1F700C000000E
:1001E0000FEF20E040E060E0CE0101960E944F005A
:1001F000CE0101960E945D009FEF29E688E19150B3
:1002000020408040E1F700C0000000E020E040E036
:1002100060E0CE0101960E944F00CE0101960E943F
:100220005D009FEF29E688E1915020408040E1F792
:1002300000C0000010E000E0C801B7010E94820188
:10024000462FFE01319630E020E0C901B6010E9440
:100250008201640F6535E0F5862F880F880F962F91
:10026000981B9150862F880F860F60E090838183C2
:100270006283138233953496211588E1380729F774
:10028000CE0101960E945D009FE728E381E0915036
:1002900020408040E1F700C000004D9B05C0139551
:1002A00001159CE3190741F600E020E040E060E022
:1002B000CE0101960E944F00CE0101960E945D0082
:1002C0002FEF89E698E1215080409040E1F74BCF35
:1002D0006A3A68F46555862F880F880F962F981B09
:1002E000892F8150962F990F690F90E0BFCF6A5ADE
:1002F000962F990F960F862F880F880F681B6150D5
:1003000080E0B4CF97FB072E16F4009407D077FD5A
:1003100009D00E94960107FC05D03EF49095819586
:100320009F4F0895709561957F4F0895AA1BBB1B41
:1003300051E107C0AA1FBB1FA617B70710F0A61BE5
:10034000B70B881F991F5A95A9F780959095BC0106
:08035000CD010895F894FFCFE0
:00000001FF
